:1000000008010020F10A00005D0B0000650B0000F4
:100010006D0B00006D0B00006D0B00000000000078
:100020000000000000000000000000006D0B000058
:100030006D0B0000000000006D0B00006D0B000058
:100040006D0B00006D0B00006D0B00006D0B0000D0
:100050006D0B00006D0B00006D0B00006D0B0000C0
:100060006D0B00006D0B00006D0B00006D0B0000B0
:100070006D0B00006D0B00006D0B00006D0B0000A0
:100080006D0B00006D0B00006D0B00006D0B000090
:100090006D0B00006D0B00006D0B00006D0B000080
:1000A0006D0B00006D0B00006D0B00006D0B000070
:1000B0006D0B00006D0B00006D0B00006D0B000060
:1000C0006D0B00006D0B00006D0B00006D0B000050
:1000D0006D0B00006D0B00006D0B00006D0B000040
:1000E0006D0B000000000000000000006D0B000020
:1000F0006D0B00006D0B00006D0B00006D0B000020
:100100006D0B00006D0B00006D0B00006D0B00000F
:1001100000000000000000006D0B00006D0B0000EF
:100120006D0B00006D0B00006D0B00006D0B0000EF
:100130006D0B00006D0B00006D0B00006D0B0000DF
:1001400000000000000000000000000000000000AF
:100150006D0B00006D0B00006D0B00006D0B0000BF
:10016000000000000000000000000000000000008F
:10017000000000000000000000000000000000007F
:10018000000000000000000000000000000000006F
:10019000000000000000000000000000000000005F
:1001A000000000000000000000000000000000004F
:1001B0006D0B00006D0B00006D0B00006D0B00005F
:1001C0006D0B00006D0B00006D0B00006D0B00004F
:1001D0006D0B00006D0B00006D0B00006D0B00003F
:1001E0006D0B00006D0B00006D0B000000000000A7
:1001F000000000006D0B00006D0B00006D0B000097
:100200006D0B00006D0B00000000000000000000FE
:100210006D0B00006D0B00006D0B00006D0B0000FE
:100220006D0B00006D0B00006D0B00006D0B0000EE
:100230006D0B00006D0B00006D0B00006D0B0000DE
:100240006D0B00006D0B00006D0B00006D0B0000CE
:100250006D0B00006D0B00006D0B00006D0B0000BE
:100260006D0B00006D0B00006D0B000080B483B0BF
:1002700000AF2F4A2E4B1B6843F0010313602C4B39
:100280001B687B602B4A2B4B1B6823F0E003136039
:10029000294A294B1B68C3F313031360274A274BD2
:1002A0001B6843F0E0031360254A254B1B6823F0CD
:1002B000E0031360234A234B1B6843F0E003136001
:1002C000214A214B1B6843F0E0031360184A184B86
:1002D0001B6843F002031360154B1B687B601B4ACD
:1002E0001A4B1B6823F0FF031360194B1B68184B54
:1002F00000221A60174A174B1B6843F0FF03136074
:10030000154A154B1B6823F0FF031360134A134B68
:100310001B6843F0FF031360114A114B1B6843F045
:10032000FF03136000BF0C37BD465DF8047B7047C8
:1003300008E10F40284500402C45004000440040A3
:10034000204400401C45004008450040285500401E
:100350002C55004000540040205400401C550040E3
:100360000855004080B582B000AF0346FB71124AC9
:10037000114B1B6823F0E0031360104AFB791360F4
:100380000D4A0D4B1B6843F0800313600A4A0A4B69
:100390001B6823F060031360132000F017F9064A6E
:1003A000054B1B6823F0E0031360012000F042F9C5
:1003B00000BF0837BD4680BDFC430040FC530040F1
:1003C00080B582B000AF0346FB710F4AFB79136022
:1003D0000E4A0E4B1B6843F0C00313600B4A0B4BD5
:1003E0001B6823F020031360132000F0EFF8074A86
:1003F000064B1B6823F0E0031360012000F01AF99C
:1004000000BF0837BD4680BDFC530040FC430040A0
:1004100080B500AFFFF72AFF0F2000F00BF938205E
:10042000FFF7A0FF052000F005F93820FFF79AFF3D
:10043000962000F0E9F80C20FFF794FF0120FFF769
:1004400091FF0620FFF78EFF322000F0F3F800BF87
:1004500080BD00BF80B500AF0120FFF783FF00BF64
:1004600080BD00BF80B582B000AF786006E07B68D9
:100470005A1C7A601B781846FFF7A2FF7B681B782E
:10048000002BF4D100BF0837BD4680BD80B582B0D7
:1004900000AF0346FB71FB791846FFF791FF00BFE1
:1004A0000837BD4680BD00BF80B582B000AF786020
:1004B0007B68092B12D97B680E4AA2FB0323DB0859
:1004C0001846FFF7F1FF7A680A4BA3FB0213D9081D
:1004D0000B469B000B445B00D31A7B607B68DBB24E
:1004E0003033DBB21846FFF7D1FF00BF0837BD46F7
:1004F00080BD00BFCDCCCCCC80B582B000AF034670
:100500003960FB713B68DAB2FB791344DBB2184601
:10051000FFF728FF00BF0837BD4680BD80B400AF9D
:100520001F4A1F4B1B6843F0004313601C4A1C4BBF
:100530001B6843F4006313601A4A1A4B1B6823F4C8
:10054000F86303F5A8631360154A154B1B6823F085
:1005500070031360124A124B1B6823F4005313609C
:100560000F4A0F4B1B6843F0804313600C4A0C4B3F
:100570001B6823F0FE5303F18073136000BF0A4B26
:100580001B6803F04003002BF9D0054A044B1B689D
:1005900023F40063136000BFBD465DF8047B704721
:1005A00070E00F4060E00F4050E00F4080B400AFBB
:1005B000054B00221A60044B05221A6000BFBD469D
:1005C0005DF8047B704700BF10E000E080B483B0AA
:1005D00000AF7860094A7B68013B1360084B00223A
:1005E0001A6000BF074B1B6803F48033002BF9D05F
:1005F00000BF0C37BD465DF8047B704714E000E097
:1006000018E000E010E000E080B584B000AF786052
:100610000023FB6005E05020FFF7D8FFFB680133A3
:10062000FB60FA687B689A42F5D300BF1037BD467D
:1006300080BD00BF80B584B000AF78600023FB6050
:1006400005E00748FFF7C2FFFB680133FB60FA686B
:100650007B689A42F5D300BF1037BD4680BD00BF0E
:100660008038010080B483B000AF0D4B1B687B6005
:100670000C4A0C4B1B6843F0100313600A4B0B4AE7
:100680001A600B4BC0221A600A4B3F221A600A4BB9
:100690003F221A6000BF0C37BD465DF8047B7047EF
:1006A00008E60F4008E10F40204502404B434F4C05
:1006B00000440240104502401C45024080B483B013
:1006C00000AF78607B6801337B607A68094B83FBFD
:1006D00002139910D317C91A0B469B000B445B00F9
:1006E000D31A7B607B6818460C37BD465DF8047BE7
:1006F000704700BF6766666690B587B000AFF86068
:10070000B96087ED000BBA684FF00003404CC2E9B6
:100710000034BB6803F108024FF000033D4CC2E90E
:100720000034BB6803F110024FF000033A4CC2E9F9
:100730000034BB6803F118024FF00003374CC2E9E4
:100740000034BB6803F120024FF00003344CC2E9CF
:100750000034BB6803F128024FF00003314CC2E9BA
:100760000034BB6803F1300223A4D4E90034C2E9A9
:100770000034BB6803F1380221A4D4E90034C2E993
:100780000034BB6803F140021FA4D4E90034C2E97D
:10079000003400237B6126E07B69DB00BA681344E8
:1007A000D3E900341A462346D7E9000100F0E6F900
:1007B00003460C46C7E900347B699B00FA68134482
:1007C0001A6801321A607B69DB00BA681344D3E906
:1007D0000001D7E9002300F0EFFB0346002BDBD13B
:1007E0007B6901337B617B69082BECDD00BF1C3723
:1007F000BD4690BDAFF300809A9999999999B93FF8
:100800009A9999999999A93F7B14AE47E17A843FC7
:100810000000344000002440000014400000F03F7D
:100820000000E03F0000D03F90B599B000AFFFF767
:1008300075FEFFF7BBFEFFF7EBFDFFF713FF00238D
:10084000FB650AE0FB6D9B0007F160021344002288
:1008500043F8602CFB6D0133FB65FB6D082BF1DD6C
:100860000023BB6500237B6500233B650023FB64FD
:10087000934B1B6803F02003BB64914B1B6803F090
:1008800010037B648E4B1B6803F008033B648C4BA6
:100890001B6803F00403FB63894B1B6803F002032E
:1008A000BB63874B1B6803F001037B63002180203F
:1008B000FFF722FE8348FFF7D5FD0A218020FFF7CE
:1008C0001BFEFB6C1846FFF7EFFD3B6D1846FFF76C
:1008D000EBFD7D4B1B681846FFF7C4FDBB6D18464A
:1008E000FFF7E2FD7B6D1846FFF7DEFD7B6B002B0B
:1008F00011D1F86CFFF7E2FEF8640021C020FFF789
:10090000FBFD7248FFF7AEFD4FF47A70FFF792FEE1
:10091000FFF7A0FDACE7BB6B002B11D1386DFFF7E3
:10092000CDFE38650021C020FFF7E6FD6848FFF7DF
:1009300099FD4FF47A70FFF77DFEFFF78BFD97E787
:10094000FB6B002B11D1B86DFFF7B8FEB865002125
:10095000C020FFF7D1FD5F48FFF784FD4FF47A70A8
:10096000FFF768FEFFF776FD82E73B6C002B11D1A5
:10097000786DFFF7A3FE78650021C020FFF7BCFD6E
:100980005548FFF76FFD4FF47A70FFF753FEFFF7FE
:1009900061FD6DE77B6C002B15D10023BB65002347
:1009A0007B6500233B650023FB640021C020FFF72B
:1009B000A3FD4A48FFF756FD4FF47A70FFF73AFE61
:1009C000FFF748FD54E7BB6C002B7FF451AF7A6D05
:1009D00013469B0013445B001A46BB6D1A443B6DE3
:1009E0003F4981FB03018910DB17CB1A1A44FB6CCA
:1009F0003C4981FB03014911DB17CB1A134418460C
:100A000000F00AFA03460C46C7E90A343B4697ED64
:100A10000A0B796A1846FFF76FFE0721C020FFF71F
:100A20006BFD3148FFF71EFD0023FB653AE0FB6DCF
:100A30009B0007F16002134453F8603C002B2ED05A
:100A40000721C020FFF758FDFB6D9B0007F16002F6
:100A5000134453F8603C1846FFF726FD0821C020D8
:100A6000FFF74AFD2148FFF7FDFC0921C020FFF7F1
:100A700043FDFB6DDB007A6A1344D3E9003418466A
:100A8000214600F0B7FA03461846FFF70DFD4FF474
:100A90007A70FFF7CFFD4FF47A70FFF7CBFDFB6D57
:100AA0000133FB65FB6D082BC1DD0023BB65002313
:100AB0007B6500233B650023FB64FFF7CBFCD7E697
:100AC000FC43024034100000040000203C100000F1
:100AD00040100000441000004810000050100000BA
:100AE000676666661F85EB51541000005C100000BD
:100AF00080B582B000AF134B7B60134B3B6007E0C7
:100B00003B681A1D3A607A68111D796012681A6094
:100B10003B680E4A9342F3D30E480F494FF0000250
:100B20008842B8BF40F8042BFADB094A084B1B681F
:100B300043F470031360FFF777FE00BF0837BD462C
:100B400080BD00BF781000000000002008000020D9
:100B500088ED00E0080000200801002080B400AF0C
:100B6000FEE700BF80B400AFFEE700BF80B400AF77
:100B7000FEE700BF81F0004102E000BF83F00043C8
:100B800030B54FEA41044FEA430594EA050F08BF28
:100B900090EA020F1FBF54EA000C55EA020C7FEAEC
:100BA000645C7FEA655C00F0E2804FEA5454D4EB69
:100BB0005555B8BF6D420CDD2C4480EA020281EA33
:100BC000030382EA000083EA010180EA020281EA6B
:100BD0000303362D88BF30BD11F0004F4FEA0131BD
:100BE0004FF4801C4CEA113102D0404261EB4101CC
:100BF00013F0004F4FEA03334CEA133302D0524252
:100C000063EB430394EA050F00F0A780A4F101040D
:100C1000D5F1200E0DDB02FA0EFC22FA05F2801847
:100C200041F1000103FA0EF2801843FA05F359412D
:100C30000EE0A5F120050EF1200E012A03FA0EFCAC
:100C400028BF4CF0020C43FA05F3C01851EBE371D6
:100C500001F0004507D54FF0000EDCF1000C7EEBF3
:100C600000006EEB0101B1F5801F1BD3B1F5001F31
:100C70000CD349085FEA30004FEA3C0C04F1010450
:100C80004FEA445212F5800F80F09A80BCF1004F79
:100C900008BF5FEA500C50F1000041EB045141EAFB
:100CA000050130BD5FEA4C0C404141EB010111F4FC
:100CB000801FA4F10104E9D191F0000F04BF0146A7
:100CC0000020B1FA81F308BF2033A3F10B03B3F185
:100CD00020020CDA0C3208DD02F1140CC2F10C0215
:100CE00001FA0CF021FA02F10CE002F11402D8BF73
:100CF000C2F1200C01FA02F120FA0CFCDCBF41EA3F
:100D00000C019040E41AA2BF01EB0451294330BD0D
:100D10006FEA04041F3C1CDA0C340EDC04F11404EA
:100D2000C4F1200220FA04F001FA02F340EA0300C1
:100D300021FA04F345EA030130BDC4F10C04C4F107
:100D4000200220FA02F001FA04F340EA03002946E7
:100D500030BD21FA04F0294630BD94F0000F83F431
:100D6000801306BF81F480110134013D4EE77FEA14
:100D7000645C18BF7FEA655C29D094EA050F08BF60
:100D800090EA020F05D054EA000C04BF1946104641
:100D900030BD91EA030F1EBF0021002030BD5FEA85
:100DA000545C05D14000494128BF41F0004130BDAD
:100DB00014F580043CBF01F5801130BD01F0004501
:100DC00045F0FE4141F470014FF0000030BD7FEA74
:100DD000645C1ABF194610467FEA655C1CBF0B466F
:100DE000024650EA013406BF52EA033591EA030F86
:100DF00041F4002130BD00BF90F0000F04BF00217E
:100E0000704730B54FF4806404F132044FF00005B0
:100E10004FF0000150E700BF90F0000F04BF002129
:100E2000704730B54FF4806404F1320410F000458F
:100E300048BF40424FF000013EE700BF42004FEA8A
:100E4000E2014FEA31014FEA02701FBF12F07F4307
:100E500093F07F4F81F06051704792F0000F14BF04
:100E600093F07F4F704730B54FF4607401F0004548
:100E700021F0004120E700BF50EA010208BF70479F
:100E800030B54FF000050AE050EA010208BF704794
:100E900030B511F0004502D5404261EB41014FF4FD
:100EA000806404F132045FEA915C3FF4DCAE4FF001
:100EB00003025FEADC0C18BF03325FEADC0C18BFE8
:100EC000033202EBDC02C2F1200300FA03FC20FA39
:100ED00002F001FA03FE40EA0E0021FA02F1144486
:100EE000C1E600BF4FF0FF3C06E000BF4FF0010C31
:100EF00002E000BF4FF0010C4DF804CD4FEA410C69
:100F00007FEA6C5C4FEA430C18BF7FEA6C5C1BD035
:100F100001B050EA410C0CBF52EA430C91EA030FB6
:100F200002BF90EA020F0020704710F1000F91EA13
:100F3000030F58BF994208BF90422CBFD8176FEAE1
:100F4000E37040F0010070474FEA410C7FEA6C5CAF
:100F500002D150EA013C07D14FEA430C7FEA6C5CB6
:100F6000D6D152EA033CD3D05DF8040B704700BFE2
:100F70008446104662468C461946634600E000BF30
:100F800001B5FFF7B7FF002848BF10F1000F01BD02
:100F90004DF808EDFFF7F4FF0CBF012000205DF8CD
:100FA00008FB00BF4DF808EDFFF7EAFF34BF012052
:100FB00000205DF808FB00BF4DF808EDFFF7E0FFEB
:100FC00094BF012000205DF808FB00BF4DF808ED3C
:100FD000FFF7CEFF94BF012000205DF808FB00BFA3
:100FE0004DF808EDFFF7C4FF34BF012000205DF885
:100FF00008FB00BF4A0011D212F5001211D20DD524
:101000006FF47873B3EB62520ED44FEAC12343F00E
:10101000004343EA505323FA02F070474FF00000B8
:10102000704750EA013002D14FF0FF3070474FF067
:1010300000007047416C696E616E3A00626972002F
:10104000696B690075630000646F727400000000D2
:101050006265730048455341504C41005800000000
:10106000F8B500BFF8BC08BC9E467047F8B500BF95
:08107000F8BC08BC9E46704765
:081078002E0000000000002022
:00000001FF
